:020000040800F2
:100000004005002005010008E71B0008831A0008CE
:10001000E51B00080106000825210008000000007B
:10002000000000000000000000000000EB1B0008C2
:100030007B08000800000000E91B0008ED1B000819
:100040001F0100081F0100081F0100081F01000810
:100050001F0100081F0100081F0100081F01000800
:100060001F0100081F0100081F0100081F010008F0
:100070001F0100081F0100081F01000845080008B3
:100080001F0100081F0100081F0100081F010008D0
:100090001F0100081F0100081F0100081F010008C0
:1000A0001F0100081F0100081F0100081F010008B0
:1000B0001F0100081F0100081F0100081F010008A0
:1000C0001F0100081F0100081F0100081F01000890
:1000D0001F010008192100081F0100081F01000866
:1000E0001F0100081F0100081F010008DFF810D0E1
:1000F00000F074FA00480047E5240008AFF30080E0
:10010000400500200648804706480047FEE7FEE716
:10011000FEE7FEE7FEE7FEE7FEE7FEE7FEE7FEE7B7
:100120004F1C0008ED000008202A04DB203A21FAC9
:1001300002F00021704721FA02F3D040C2F1200200
:100140009140084319467047D2B201E000F8012BF4
:10015000491EFBD270470022F6E710B513460A4647
:1001600004461946FFF7F0FF204610BD30B505469E
:100170002A460B4612F8010B13F8014B08B1A042B6
:10018000F8D01CB1002802D06D1CF1E7284630BD24
:100190002DE9FE4F804681EA0300C00F0C46009017
:1001A00021F0004123F00045B8EB0200A94105D23F
:1001B0004046214690461C460B46024623F000402E
:1001C000104347D0270DC7F30A00C3F30A5102902A
:1001D000401A019040286BDAC3F3130040F4801BEF
:1001E0000098924620B10023D2EB030A63EB0B0B7D
:1001F00001985946C0F14002504600F03AF90646CF
:100200000D4650465946019A00F042F910EB08009D
:100210006141002487EA115284EAE7731A4340D00F
:10022000009A62B3019A012A4FEA075215DC001BBB
:1002300061EB02014FF0004202EA0752CDE90042B1
:10024000001C41F5801132462B4600F079F903B0CD
:10025000BDE8F08F40462146F9E7001B61EB020143
:10026000001C41F5801300185B412018A2F500170F
:1002700047EB030140EAD570B6196D4111E06D08F6
:100280004FEA360645EAC0754FEA0752001B61EB9C
:100290000201001C41F5801149084FEA30000019A5
:1002A000514132462B4603B0BDE8F04F00F039B95A
:1002B0000098012240000023D0EB020263EBE073C0
:1002C000009821464FEAE074B8EB000061EB0401AE
:1002D000E9E783F000435BE781F0004158E72DE94F
:1002E000FE4F81EA030404F0004421F00041009431
:1002F0004FF0000B23F0004350EA01045ED052EAB5
:1003000003045BD0C3F30A54C1F30A552C44A4F28E
:10031000F3340194A0FB0254C1F3130141F48011A2
:10032000C3F3130343F4801301FB024400FB034EA9
:10033000840A970A44EA815447EA8357A4FB076872
:1003400002958D0A05FB07854FEA932C04FB0C549C
:100350002705029D4FEA065847EA1637B5EB080510
:100360006EEB070C870E920E47EA811742EA831262
:10037000A7FB0201B6EB0B0164EB00042B0D43EA73
:100380000C335E1844EB1C50DA465146E7FB020181
:10039000C5F313044FEA0B3343EA14534FEA043214
:1003A000019C43EA0603A4F10C040294009CCDE9ED
:1003B00000B400F0C5F803B0BDE8F08F002001469E
:1003C000F9E70EB540F2334102910021CDE9001169
:1003D0000A460B4600F0B4F803B000BD00F000423E
:1003E00020F00040C10DC0F3160040F400007F294A
:1003F00001DA00207047962903DCC1F19601C8405C
:1004000001E096398840002AF4D04042704701F05C
:10041000004330B421F0004150EA010206D00A0D39
:10042000A2F56072C1F31301002A02DC30BC002087
:100430007047440F44EAC104C100E01830BC00EB2F
:10044000C25000F037B830B50B46014600202022DC
:10045000012409E021FA02F59D4205D303FA02F5D1
:10046000491B04FA02F52844151EA2F10102F1DC31
:1004700030BD202A04DB203A00FA02F10020704748
:100480009140C2F1200320FA03F3194390407047D2
:10049000202A06DBCB17203A41FA02F043EAE07348
:1004A00006E041FA02F3D040C2F120029140084335
:1004B000194670470029A8BF7047401C490008BF73
:1004C00020F00100704710B4B0FA80FC00FA0CF084
:1004D00050EA010404BF10BC704749B1CCF12004BC
:1004E00021FA04F411FA0CF118BF01212143084349
:1004F000A3EB0C01CB1D4FEA00614FEA102042BF75
:10050000002010BC704700EBC35010440029A4BF6A
:1005100010BC7047401C490008BF20F0010010BC0F
:10052000704710B5141E73F1000408DA401C41F145
:10053000000192185B411A4301D120F0010010BD67
:100540002DE9F04D92469B4611B1B1FA81F202E0DD
:10055000B0FA80F220329046FFF78BFF04460F4638
:1005600040EA0A0041EA0B0153465A46084313D0B9
:10057000114653EA010019D0C8F140025046FFF776
:10058000D3FD05460E46504659464246FFF771FFD9
:10059000084305D0012004E020463946BDE8F08D2F
:1005A0000020054346EAE0762C4337430A9863056A
:1005B000E40AA0EB08000022FD0A44EA47540A308E
:1005C00002D500200146E9E7010510196941DDE97E
:1005D000084500196941BDE8F04DA2E7064C074DFA
:1005E00006E0E06840F0010394E807009847103403
:1005F000AC42F6D3FFF77EFD80250008A025000859
:10060000FEE7000070B50024204600F05FF8134DAF
:1006100004E0641CE4B2012000F022F82021284606
:1006200000F0B0FB18B1642C13D2002407E0642C56
:10063000EFD30EE0641CE4B2012000F011F8202199
:10064000284600F09FFB10B1642CF3D301E0642C2A
:1006500001D3012070BD002070BD000000080140E2
:100660002DE9F1434FF46179DFF85C804FF0E0242D
:10067000009824E04D46A84200D80546A66900F03F
:10068000BFFCB0FBF8F000FB1567002F05DBA0698D
:10069000B04211DAB842FADA0EE000F0B1FCB0FB79
:1006A000F8F000EB4001C1EBC01007EBC001A069FE
:1006B000B042FCDD8842FADC0098401B0090002824
:1006C000D8D1BDE8F883000040420F001FB50021DB
:1006D000094B202230B101200092CDE90101032015
:1006E000039003E00191029100920391694618463C
:1006F00000F058FA1FBD0000000801402DE9F05F2E
:100700008A46834600F07CF8FFF77CFF10B1022098
:10071000BDE8F09F0024204D00F062F82855641CCD
:10072000E4B2052CF8D32E786878AA78EB783118E3
:100730001A4411442A7991422CD1FFF742FEDFF886
:100740005C80DFF85C9042464B46FFF7C8FD0746E9
:100750000C463046FFF735FE3A462346FFF718FDB4
:10076000FFF755FECAF80000E878FFF72AFE424678
:100770004B46FFF7B4FD06460C46A878FFF721FE6E
:1007800032462346FFF704FDFFF741FECBF8000099
:100790000120BDE70020BBE7000000209A9999994D
:1007A0009999B93F10B50020FFF790FF0B4C20211D
:1007B000204600F0E7FA0028F9D02820FFF750FF84
:1007C0002021204600F0DEFA002806D02021204615
:1007D00000F0D8FA0028F9D1012010BD000801402E
:1007E00070B5002425466006040EFFF7DBFF08B154
:1007F00044F001046D1CEDB2082DF4D3204670BD09
:1008000010B50120FFF762FF0D4C01222021204688
:1008100000F0BDFA012000F0B3F9002220212046AB
:1008200000F0B5FA142000F0ABF901222021204697
:1008300000F0ADFABDE810401E20FFF711BF000028
:1008400000080140014800F08BB80000F8000020CB
:1008500030B590F840500124AC40C56B6C60046822
:1008600063604368102B036803D099600068C2601E
:1008700030BD9A600068C16030BD704772B6FEE757
:1008800010B590F821100022022905D004218163BF
:1008900080F82020012010BD01680B6823F00E03B2
:1008A0000B6001680B6823F001030B6090F8403087
:1008B000C46B012101FA03F3636080F8211080F812
:1008C0002020104610BD000010B590F82110002423
:1008D000022903D00421816301243DE001680A68F4
:1008E00022F00E020A6001680A6822F001020A6022
:1008F0001A4A0168914201D1012121E0174A1432BC
:10090000914201D110211BE0144A2832914201D1B9
:10091000891515E0114A3C32914201D189140FE04A
:100920000E4A5032914202D14FF4803108E00B4A16
:100930006432914202D14FF4801101E04FF0807196
:10094000064A083A5160012180F82110002180F800
:100950002010416B01B18847204610BD08000240BD
:100960002DE9F05FC16B0C6801680B68D0F840C0DE
:10097000042202FA0CF2494DDFF824A1494E4A4FF5
:10098000DFF828B1DFF828E122422CD05A072AD517
:100990000A68920603D40A6822F004020A60016819
:1009A000A94201D1042219E0514501D1402215E0AC
:1009B000B14202D14FF4806210E0B94202D14FF44B
:1009C00080420BE0594502D14FF4802206E0714588
:1009D00002D14FF4800201E04FF080622F490839C4
:1009E0004A60C16A3BE04FF0020808FA0CF818EAC6
:1009F000040F4FF000094FF0010235D05FEA837811
:100A000032D50B689B0605D40B6823F00A030B60F4
:100A100080F821200168A94201D1022219E0514544
:100A200001D1202215E0B14202D14FF4007210E052
:100A3000B94202D14FF400520BE0594502D14FF4B4
:100A4000003206E0714502D14FF4001201E04FF090
:100A50000072124908394A6080F82090816A0029A2
:100A60001AD0BDE8F05F0847082505FA0CF52542C5
:100A700012D01B0710D50B6823F00E030B6090F803
:100A80004010C36B02FA01F15960826380F82120A3
:100A900080F82090016BE2E7BDE8F09F080002407B
:100AA0001C00024030000240440002405800024056
:100AB0006C00024030B528B308C813491422194409
:100AC000B1FBF2F18900C1631049816302214177D2
:100AD0001A6843F6F0718A43D0E900142143D0E943
:100AE00002452C432143046921434469214384691D
:100AF00021431143196000214163012242770177AC
:100B0000084630BD012030BDF8FFFDBF00000240A7
:100B100070B5044690F82000002501280CD0012073
:100B200084F8200094F821600020012E06D084F87B
:100B300020000225284670BD022070BD022684F8E0
:100B40002160A0632068066826F001060660204642
:100B5000FFF77EFEE06A00282068016802D041F0BD
:100B60000E0106E021F0040101602068016841F0F7
:100B70000A0101602068016841F001010160D9E7C4
:100B800070B5044600F008F90546601C02D0044820
:100B90000078044400F000F9401BA042FAD370BD75
:100BA000140000202DE9F84FDFF8B8910024A9F1D6
:100BB000040B23460F2709F1040AABF1040EC9E028
:100BC0000125A5402A40AA427DD1674ED1F804C034
:100BD000ACEB0608B44532D014DCBCF1030F3AD0BC
:100BE00009DCBCF1000F2AD0BCF1010F1CD0BCF114
:100BF000020F31D11DE0BCF1110F17D0BCF1120F63
:100C00002AD119E0B8F5881F19D006DCB8F5803F65
:100C100015D0B8F5801F1FD111E0B8F5001F0ED018
:100C2000B8F5041F18D10AE0CB6815E0CB681B1D8E
:100C300012E0CB6808330FE0CB680C330CE08B6814
:100C40002BB1012B4FF0080303D0456104E00423CE
:100C500002E0056100E00023FF2A01D8064601E01A
:100C600000F104064FEA840501D9A5F12005D6F864
:100C7000008007FA05FC28EA0C0803FA05F548EAA3
:100C80000508C6F800804D68ED0062D5374DAE69A5
:100C900046F00106AE61AD6924F0030605F00105DA
:100CA0000095334D06EB050CDCF80850A607360F0F
:100CB00007FA06F825EA0805DFF8B880404503D1B1
:100CC0004FF0000817E044E0DFF8AC80404502D167
:100CD0004FF001080FE0DFF8A480404502D14FF04B
:100CE000020808E0DFF89880404502D14FF0030881
:100CF00001E04FF0040808FA06F848EA0508CCF8C5
:100D000008804D68D9F80060ED024D4601D51643C4
:100D100000E096432E604D68DAF80060AD0255465B
:100D200001D5164300E096432E604D68DBF8006065
:100D3000AD035D4601D5164300E096432E604D6835
:100D4000DEF80060ED03754601D5164300E09643DA
:100D50002E60641C0D682A46E5407FF431AFBDE883
:100D6000F88F00000804014000001110001002403C
:100D70000000014000080140000C0140001001404B
:100D8000001401408068084000D0012070470AB17B
:100D9000016170470904FBE7014880687047000063
:100DA0001400002002488168027811448160704775
:100DB00014000020074810B5016841F010010160DF
:100DC000032000F075F8002000F006F800F024F889
:100DD000002010BD0020024070B50D4D04464FF4B8
:100DE0007A712878B1FBF0F00A490968B1FBF0F09C
:100DF00000F0E2FA48B9102C07D200222146501E1A
:100E000000F036F800206C6070BD012070BD00005D
:100E100014000020200000200C4808B5816941F032
:100E200001018161816901F001010091C16941F015
:100E30008051C161C06900F0805000900448416851
:100E400021F0E06141F00071416008BD00100240F6
:100E500000000140002809DB00F01F020121914041
:100E60004009800000F1E020C0F800117047000048
:100E7000F0B40E4B1B680C46C3F30223C3F1070505
:100E8000042D00D90425191D072901D2002300E0F3
:100E9000DB1E012606FA05F1491E214099409E40BD
:100EA000761E16403143F0BC01F04EB90CED00E067
:100EB000064900F0070208684FF6FF03184040EAB1
:100EC0000220034A10430860704700000CED00E068
:100ED0000000FA052DE9F0470F46050061D0434EAA
:100EE000306800F00700B84209D2306820F00700EF
:100EF00038433060306800F00700B84251D12868AC
:100F00003B4C810712D5400703D5606840F4E06090
:100F100060602878000703D5606840F46050606026
:100F20006068A96820F0F000084360602878C00776
:100F300028D06868012810D02168022810D08907BD
:100F400000292EDA616821F0030101436160FFF797
:100F500023FF804641F288390DE021688903EFE7DD
:100F60008901EDE7FFF718FFA0EB0801494502D919
:100F70000320BDE8F0876068696800F00C00B0EB02
:100F8000810FEFD1306800F00700B8420BD930680C
:100F900020F0070038433060306800F00700B842A6
:100FA00001D00120E5E72878400705D56068E968A9
:100FB00020F4E060084360602878000706D5606888
:100FC000296920F4605040EAC100606000F03EF8FA
:100FD0006168084AC1F30311515CC84006490860C2
:100FE00006480068FFF7F8FE0020C2E70020024034
:100FF0000010024066250008200000201800002094
:10100000014800687047000020000020044805499E
:1010100000684968044AC1F30221515CC840704726
:1010200020000020001002407625000804480549F1
:1010300000684968044AC1F3C221515CC840704746
:101040002000002000100240762500080E4A51685A
:101050000E4801F00C03042B11D0082B0FD10C48C3
:10106000C1F38343C903C05C0AD55168084AC1F380
:101070004041921E515C054A5043B0FBF1F070476D
:1010800004494843704700000010024000127A00F3
:101090005625000800093D002DE9F84F040070D0E6
:1010A0002078C04DC00749D06868C0F3810001288E
:1010B00007D06868C0F38100022809D16868C003BE
:1010C00006D52868800339D560680028E7D035E068
:1010D0006068B0F5803F0BD010B1B0F5A02F11D0F3
:1010E000286820F480302860286820F4802002E0FE
:1010F000286840F480302860606890B1FFF74CFEAB
:1011000006460AE0286840F480202860F0E700BF27
:10111000FFF742FE801B642873D828688003F7D548
:101120000CE0FFF739FE064605E000BFFFF734FE8E
:10113000801B6428F0D828688003F7D420789A4E62
:1011400080074FF001094FF0000839D5686810F0AA
:101150000C0F07D06868C0F38100022809D16868C5
:10116000C00306D42868800714D52069012808D157
:1011700010E02069B0B1C6F80090FFF70DFE0746F9
:1011800005E00AE1FFF708FEC01B0228C4D8286862
:101190008007F7D52868616920F0F80040EAC100AF
:1011A00028600DE0C6F80080FFF7F6FD074604E072
:1011B000FFF7F2FDC01B022823D828688007F7D468
:1011C000207800072CD57948A169D9B1C0F80090E2
:1011D000FFF7E2FD074604E0FFF7DEFDC01B022833
:1011E0000FD8686A8007F7D571484FF4FA51006844
:1011F000B0FBF1F0009000BF0098411E0091FAD2C0
:101200000EE080E0C0F80080FFF7C6FD074604E06E
:10121000FFF7C2FDC01B022875D8686A8007F7D4A3
:101220002078400760D5E8690027C00008D4E86945
:1012300040F08050E861E869012700F0805000909C
:101240005C480168C90513D40168834641F4807184
:101250000160FFF7A1FD824606E000BFFFF79CFD9D
:10126000A0EB0A0064284ED8DBF80000C005F5D5D5
:10127000E06801280AD008B1052813D0286A20F0B8
:1012800001002862286A20F0040002E0286A40F089
:1012900001002862E06841F2883B98B1FFF77CFDCD
:1012A00082460BE0286A40F004002862EEE700BFA7
:1012B000FFF772FDA0EB0A0159455AD8286A80074A
:1012C000F6D50CE0FFF768FD824605E0FFF764FD08
:1012D000A0EB0A0159454CD8286A8007F6D41FB103
:1012E000E86920F08050E861E06988B36968C1F37B
:1012F0008101022944D00228C6F8608004D0FFF79B
:101300004BFD044638E034E0FFF746FD074604E0B5
:10131000FFF742FDC01B02282BD828688001F7D4B4
:10132000206AB0F5803F05D16868A16820F40030DC
:1013300008436860D4E908010843696821F474111E
:1013400008436860C6F86090FFF726FD044606E093
:1013500025E000BFFFF720FD001B022809D8286800
:101360008001F7D51BE000BFFFF716FD001B022828
:1013700002D90320BDE8F88F28688001F4D40EE07C
:101380000128F7D06868226A00F48031914204D1C4
:10139000616A00F47010884201D00120EAE7002061
:1013A000E8E7000000100240000042428004424290
:1013B000200000200070004010B5401EB0F1807F7A
:1013C00001D3012010BD4FF0E02460610F216017B0
:1013D00000F0BAFE0020A06107202061002010BDAF
:1013E00070B590F83C20012A26D0012480F83C40BA
:1013F000022280F83D2003685A689D6822F070063A
:101400000A6832435A600D4B02689A4208D0B2F122
:10141000804F05D00A4B9A4202D00A4B9A4204D11F
:10142000496825F080031943916080F83D40002110
:1014300080F83C10084670BD022070BD002C0140B1
:10144000000400400008004010B5040003D094F8E8
:101450003D0010B107E0012010BD002084F83C00E1
:10146000204600F01FF8022084F83D00211D20686E
:1014700000F0EEFB012084F8460084F83E0084F87A
:101480003F0084F8400084F8410084F8420084F86A
:10149000430084F8440084F8450084F83D000020AF
:1014A00010BD000008B500680649884208D106480A
:1014B000816941F400618161806900F400600090FD
:1014C00008BD0000002C01400010024070B5044629
:1014D00090F83C000025012817D0012684F83C60D4
:1014E000022084F83D002068826822F0770222F40E
:1014F0007F4282600868502838D00DDC20284FD009
:1015000005DC90B3102811D14AE0022070BD3028CC
:1015100046D040280AD13BE060282FD070280DD05B
:10152000B0F5805F03D0B0F5005F12D0012584F8DC
:101530003D60002084F83C00284670BDCB68D1E9AE
:101540000121206800F0C0FB2068816841F077012C
:1015500009E0CB68D1E90121206800F0B5FB2068E3
:10156000816841F480418160E1E719E0CA68496817
:10157000206800F0BBFB5021206806E0CA6849687B
:10158000206800F0C4FB6021206800F0A7FBCEE7D4
:10159000CA684968206800F0A9FB40212068F4E788
:1015A000226801461046F0E738B5044690F842003C
:1015B000202801D0022038BD51B14AB1012020635A
:1015C00000206063204600F025FD216B012901D039
:1015D000012038BD21680A684968009121680C31F2
:1015E00051E8002F42F0100241E80023002BF5D112
:1015F00038BD000070B504460068104A90421CD106
:1016000000220F48402901D2425401E080F83F20D7
:101610000CA10B48FEF7AAFD0C4E012500B1357058
:101620000BA10748FEF7A2FD00B175702046BDE88A
:10163000704040220249FFF7B7BF70BD003801403B
:101640002800002064687431310000000800002088
:10165000646174610000000070470000F8B5016823
:1016600004460868CA684B6910F00F0F4FF0000578
:1016700059D003F0010602F49077374365D0C107D3
:1016800005D0D10503D5616C41F0010161644107CA
:1016900005D5D90703D0616C41F00201616481076F
:1016A00005D5D90703D0616C41F0040161640107DD
:1016B00007D502F02001314303D0616C41F00801ED
:1016C0006164616C00293AD0800604D5900602D589
:1016D000204600F0E2FB20684069616CC0F3801096
:1016E000090700D460B3204600F0A2FB20684069DF
:1016F000400621D52068143050E8001F21F0400139
:1017000040E80012002AF5D1E06BA8B16D494163B1
:10171000E06BFFF7D9F8002811D0E06B416B01B006
:10172000BDE8F040084783060FD593060DD5204647
:10173000BDE8F84000F0B1BB2046FFF78DFFF8BDD3
:101740002046FFF789FF6564F8BD266B2023012E34
:101750007CD1C6067AD5D60678D508684868009048
:1017600048694FF00206400640D5E16B08684068C2
:101770000004000CE8D0A28D8242E5D9E08588699A
:1017800020282DD020680C3050E8001F21F48071F3
:1017900040E80012002AF5D12068143050E8001FFC
:1017A00021F0010140E80012002AF5D12068143030
:1017B00050E8001F21F0400140E80012002AF5D156
:1017C00084F84230256320680C3050E8001F21F077
:1017D000100140E80012002AF5D1E06BFFF750F845
:1017E0006663A08DE18D401A81B22AE0A08DE18D63
:1017F000401A81B2E08D0028A6D00029A4D022682A
:101800000C3252E8000F20F4907042E80007002FDD
:10181000F5D12068143050E8002F22F0010240E892
:101820000027002FF5D184F84230256320680C3062
:1018300050E8002F22F0100240E80023002BF5D1E1
:1018400066632046FFF7D6FEF8BDFFE705062BD5F9
:10185000150629D594F841002128F5D1A068B0F5E6
:10186000805F01D12069B0B1206A411C21622168EA
:1018700000784860E08C401E0004000CE084E3D156
:101880002068C16821F08001C1602068C16841F012
:101890004001C160D8E7206A0088C0F308004860B2
:1018A000206A801C2062E5E74006CDD55006CBD5E6
:1018B000CA68204622F04002CA6084F8413000F035
:1018C000DFF8C1E7331D000870B5040004D094F8B8
:1018D0004100002510B106E0012070BD84F84050A1
:1018E000204600F023F8242084F841002068C168D5
:1018F00021F40051C160204600F030FB20680169EE
:1019000021F4904101612068416921F02A0141617F
:101910002068C16841F40051C1606564202084F8EA
:10192000410084F842006563002070BD70B586B048
:101930000025064600950195029503950068224909
:1019400088423FD12149886940F480408861886994
:1019500000F480400490886940F004008861886940
:101960001B4C00F0040004904815009002200190E8
:101970000320039069462046FFF714F92015CDE9AE
:101980000005694620460295FFF70CF9124C1148F4
:10199000C4E900058020C4E9025025618001656129
:1019A000C4E906502046FFF785F808B1FEF766FF48
:1019B000F4630022114625206662FFF759FA2520BC
:1019C000FFF748FA06B070BD003801400010024031
:1019D0000008014058000240F8000020704770479E
:1019E0002DE9F843044690F84100984616460D4606
:1019F000202802D00220BDE8F88385B17EB1002006
:101A00006064212084F84100FFF7C6F9A68481466E
:101A1000E684A0682027B0F5805F02D003E00120B3
:101A2000E9E7206910B12E4600250EE000260CE003
:101A30008021204600F036FBA8B9C6B116F8010B8C
:101A400021684860E08C401EE084E08C4B464FF0FB
:101A50000002CDF800800028EAD14FF04001204676
:101A600000F020FB40B184F841700320C3E735F853
:101A7000020BC0F30800E3E784F841700020BAE7E6
:101A80007047FEE7094808B5416941F0010141612D
:101A90004069002200F00100009011460F20FFF77E
:101AA000E7F9BDE808400F20FFF7D4B90010024065
:101AB00070B586B0002000900190029003901E48FF
:101AC000816941F010018161816901F01001049187
:101AD000816941F020018161816901F02001049157
:101AE000816941F0040181618069012200F00400F4
:101AF000124D5403049021462846FFF748F9104E32
:101B0000002220213046FFF742F9009401240320EF
:101B1000CDE90240694601942846FFF743F82020AA
:101B2000CDE900040220CDE9024069463046FFF7C6
:101B300039F806B070BD00000010024000100140EE
:101B40000008014010B586B00024174800940194A5
:101B50000294039404941349059401604721C0E959
:101B600001144FF6FF71C0E9031444618461FFF76B
:101B70006BFC08B1FEF782FE4FF48050009069467E
:101B80000948FFF7A3FC08B1FEF778FE049404A906
:101B900005480594FFF724FC002801D0FEF76EFEEF
:101BA00006B010BD002C0140680000200C4810B5A4
:101BB0000A4901604FF4E1314160002181600C224B
:101BC000C160C0E904128161C161FFF77DFE002898
:101BD00003D0BDE81040FEF751BE10BD00380140F3
:101BE000B0000020FEE7FEE770477047FFF7DAB865
:101BF00030B58FB028216846FEF7ADFA14210AA847
:101C0000FEF7A9FA01210804CDE90010002402948E
:101C100002250491CDE907504FF4E0100990684681
:101C2000FFF73AFA08B172B6FEE70F20CDE90A05D0
:101C30004FF48060CDE90C4002210AA80E94FFF712
:101C400049F9002801D072B6FEE70FB030BD7047E9
:101C5000F0B50268194B1A4C1A4D4FF08047984264
:101C600005D0B84203D0A04201D0A84203D122F04F
:101C700070064A683243984205D0B84203D0A04269
:101C800001D0A84203D122F44074CA6822434C69AF
:101C900022F08002224302608A68C2620A6882627D
:101CA000984201D109690163012141610169C907B4
:101CB00003D0016921F001010161F0BD002C014058
:101CC000000400400008004010B5846842EA032286
:101CD00024F47F440A432243826010BD826822F0CC
:101CE00070020A4342F007018160704710B5036A31
:101CF000046A24F001040462846924F0F00444EAD4
:101D0000021423F00A020A438461026210BD10B576
:101D1000036A046A24F010040462846923F0A003B7
:101D200024F4704444EA023243EA01118261016200
:101D300010BD10B5406A0021C185C184FFF78CFC3D
:101D400010BD70B5446A2068406994F84110C0F332
:101D5000C0100025212904D118B1E584204600F0E7
:101D60008EF82068406994F84210C0F38010222950
:101D700004D118B1E585204600F05AF8606C40F0B7
:101D8000100060642046FFF767FC70BD10B5014687
:101D9000406A096809684FF0000289062ED4C2859E
:101DA00001680C3151E8003F23F4807341E80034AE
:101DB000002CF5D10168143151E8003F23F00103F4
:101DC00041E80034002CF5D10168143151E8003F9E
:101DD00023F0400341E80034002CF5D1202180F8A5
:101DE0004210016B012909D101680C3151E8003F13
:101DF00023F0100341E80034002CF5D14263016B5D
:101E0000012902D0FFF7EAFD10BD818DFFF7F2FB3B
:101E100010BD10B5406A01214163016B012902D058
:101E2000FFF7DDFD10BD818D4908FFF7E3FB10BD15
:101E300001680C3151E8002F22F4907241E8002330
:101E4000002BF5D10168143151E8002F22F0010276
:101E500041E80023002BF5D1016B012909D101686C
:101E60000C3151E8002F22F0100241E80023002B32
:101E7000F5D1202180F842100021016370470168EC
:101E80000C3151E8002F22F0C00241E80023002B62
:101E9000F5D1202180F84110704708B590F8421024
:101EA000222901D0022008BD82684FF480539A4253
:101EB00001D1016921B1816A9A421BD04AB10AE07D
:101EC0000268816A5268C2F308020A80816A891C2A
:101ED00008E0026972B10268526802F07F020A707B
:101EE000816A491C8162C18D491E0904090CC185A2
:101EF00003D01BE002685268F1E70168CA6822F06B
:101F00002002CA600168CA6822F48072CA6001684F
:101F10004A6922F001024A61202180F84210002122
:101F20004163026B012A03D0FFF758FD002008BD72
:101F3000016301680C3151E8002F22F0100241E8E2
:101F40000023002BF5D101680A68D20602D50A6881
:101F500049680091818DFFF74DFBE7E770B50446B6
:101F600000680169E26821F440511143016121696F
:101F7000A0680843616908432168CA6841F20C639C
:101F80009A430243CA6020684169A26921F4407102
:101F9000114341611E492068884202D1FFF746F88B
:101FA00001E0FFF733F800EBC00101EB00126068BD
:101FB00064218000B2FBF0F3B3FBF1F36FF018067D
:101FC0007343B2FBF0F5B2FBF0F605EB8305322369
:101FD00003EB0515B5FBF1F5B6FBF1F605F0F005E1
:101FE00005EB0615B2FBF0F6B2FBF0F0B0FBF1F03A
:101FF0006FF01802504306EB800003EB0010B0FBBB
:10200000F1F0216800F00F002844886070BD0000E6
:102010000038014038B581620446828500201346AD
:102020006064222284F84220E56B1B4AAA62E56BB9
:102030001A4AEA62E56B1A4A2A63E26B50630A465F
:102040002168E06B091DFEF763FD206801684068A8
:102050000090206948B120680C3050E8001F41F41E
:10206000807140E80012002AF5D12068143050E851
:10207000001F41F0010140E80012002AF5D120685C
:10208000143050E8001F41F0400140E80012002ADF
:10209000F5D1002038BD00008D1D0008131E00087A
:1020A000431D00082DE9F843984617460D4604469F
:1020B000089E24E0701C22D0FEF76EFEA0EB080004
:1020C000B0421AD8CEB12068C168490717D5802D13
:1020D00015D0402D13D00168C94309070FD40168FA
:1020E0000025406800902046FFF7A2FE08206064AB
:1020F00084F840500120BDE8F8830320FBE7206806
:10210000006835EA000004D00020B842D2D0002098
:10211000F1E70120F9E700000148FFF79FBA00004E
:10212000B0000020FEE700000FB4054B10B503A976
:10213000044A029800F028F810BC5DF814FB000077
:10214000CD240008240000200907090E002804DB24
:1021500000F1E02080F80014704700F00F0000F15B
:10216000E02080F8141D704702E008C8121F08C163
:10217000002AFAD170477047002001E001C1121F08
:10218000002AFBD1704700002DE9FF4F8BB0884635
:102190000546002606E025280BD0DDE90D12904704
:1021A0006D1C761C28780028F5D10FB03046BDE8AC
:1021B000F08F0024A146A2460122AE4900E004436C
:1021C00015F8013F203B02FA03F00842F7D12878C6
:1021D0002A2810D06FF02F022878A0F130010929A9
:1021E00015D809EB890102EB410144F0020400EB30
:1021F00001096D1CF0E758F8041B5FEA010903D5DB
:1022000044F40054C9F1000944F002046D1C28781C
:102210002E2817D115F8010F44F004042A280ED0F7
:102220006FF02F022878A0F1300109290AD80AEBB3
:102230008A0102EB410100EB010A6D1CF2E758F83C
:1022400004AB6D1C28786C280FD006DC4C2817D006
:1022500068280DD06A2814D104E0742810D07A2898
:102260000FD10DE044F400140AE044F4801401E0BE
:1022700044F440146978814202D104F580146D1C45
:102280006D1C2878692865D006DC00288DD063286D
:1022900027D0642806D15DE06E2808D073282AD0A4
:1022A000752877D0DDE90D129047761CE0E0C4F385
:1022B0000250022809D003280DD0D8F800100428B5
:1022C0000DD00E6008F10408D2E0D8F80010F21723
:1022D000C1E90062F6E7D8F800100E80F2E70E7050
:1022E000F0E718F8041B8DF8001000208DF80100AD
:1022F000EB46012003E058F804BB4FF0FF306107C4
:102300004FF0000701D40AE07F1C57450DDA8742E1
:10231000FADB1BF807100029F6D106E07F1C874284
:10232000FCDB1BF807100029F8D1DDE90D23A9EB30
:1023300007008146214600F0B1F83044C61904E098
:10234000DDE90D121BF8010B90477F1EF8D22146E4
:10235000484688E058F8040BC4F302514FF00A0BCA
:10236000032900D100B2042900D140B2002802DACA
:1023700040422D2102E0210505D52B218DF82410A6
:10238000012104E006E0E10710D02021F6E708AFC4
:10239000089113E058F8040BC4F302514FF00A0BF4
:1023A000032900D180B2042900D1C0B20021EEE798
:1023B0005946FEF748F8303107F8011D0028F7D1DB
:1023C000ADEB070000F1200B600702D524F4803448
:1023D00001E04FF0010ADA4502DDAAEB0B0000E054
:1023E0000020824600EB0B0108980144A9EB010094
:1023F0000A90E00306D4DDE90D2321460A9800F097
:102400004DF806444FF0000908E009A911F8090049
:10241000DDE90D12904709F10109761C08998945FB
:10242000F3DBE0030CD5DDE90D2321460A9800F02B
:1024300035F8064404E0DDE90D1230209047761CA3
:10244000BAF10001AAF1010AF5DC05E0DDE90D129F
:1024500017F8010B9047761CBBF10001ABF1010BA3
:10246000F4DC0A982146DDE90D2300F005F8064466
:102470006D1C97E6092801002DE9F041044600256E
:102480001E461746880404D405E039462020B0478C
:102490006D1C641EF9D52846BDE8F0812DE9F04198
:1024A000044600251E469046C80301D5302700E0AB
:1024B0002027880404D505E041463846B0476D1C06
:1024C000641EF9D52846BDE8F081000013B54FF62B
:1024D000FF73012269460248FFF782FA00981CBD8B
:1024E000B0000020FEF766FCFFF782FBFFF7E0FA82
:1024F000FFF7C8FAFFF726FBFFF758FB40220F490A
:102500000F48FFF751F80F4C0026607828B10D49AD
:102510000831081FFEF7F2F8667020780028F4D022
:10252000A068FDF75BFF05466068FDF757FF0146B1
:102530002A4605A0FFF7F8FD2670E6E728000020F0
:10254000B0000020080000202530326425303264BD
:1025500000000000010202030405060708090A0B37
:102560000C0D0E0F10100000000000000000010212
:10257000030406070809000000000102030400002C
:10258000A0250008000000202800000068210008A5
:10259000C825000828000020180500007821000840
:1025A000000000000000000000000000000000002B
:1025B000000000000100000010000000000000000A
:0825C00000127A000000000087
:04000005080000ED02
:00000001FF
